:020000041A00E0
:1000000000800010AD11001A7901001A7B01001A5E
:100010007D01001A7F01001A8101001AE266FF5378
:10002000000000000000000000000000212D001A68
:100030008501001A00000000C12D001A252E001AAB
:10004000F52F001ABB01001ABB01001A00000000C6
:10005000BB01001ABB01001ABB01001ABB01001A48
:10006000D546001ABB01001ABB01001ABB01001AD9
:10007000F541001A3542001A7542001AB942001AB9
:10008000BB01001ABB01001ABB01001ABB01001A18
:10009000BB01001ABB01001ABB01001ABB01001A08
:1000A000BD01001ABB01001ADB41001AE541001A2C
:1000B000BB01001ABB01001ABB01001ABB01001AE8
:1000C000C947001AD347001ADD47001ABB01001ABE
:1000D000BB01001ABB01001ABB01001ABB01001AC8
:1000E000BB01001ABB01001ABB01001ABB01001AB8
:1000F00000000000BB01001ABB01001ABB01001A7E
:1001000000000000BB01001ABB01001ABB01001A6D
:10011000BB01001AD0AB001A00000010740A0000E6
:10012000D0AB001A0000081000000000D0AB001A8D
:100130000000002000000000D0AB001A008000206A
:1001400000000000D0AB001A00C00020000000003A
:10015000780A0010B06F00000000081000000000D6
:1001600000000020000000000080002000000000CF
:1001700000C0002000000000FEE7FEE7FEE7FEE70B
:10018000FEE7FEE7FEE7FEE7FEE7002393420AD222
:1001900010B404680C600433043004319342F8D383
:1001A0005DF8044B70477047002303E000220260B3
:1001B000043304308B42F9D37047FEE708B50020C2
:1001C00003F08AFE08BDFFFFFFFFFFFFFFFFFFFFF9
:1001D000FFFFFFFFFFFFFFFFFFFFFFFFFFFFFFFF2F
:1001E000FFFFFFFFFFFFFFFFFFFFFFFFFFFFFFFF1F
:1001F000FFFFFFFFFFFFFFFFFFFFFFFFFFFFFFFF0F
:10020000FFFFFFFFFFFFFFFFFFFFFFFFFFFFFFFFFE
:10021000FFFFFFFFFFFFFFFFFFFFFFFFFFFFFFFFEE
:10022000FFFFFFFFFFFFFFFFFFFFFFFFFFFFFFFFDE
:10023000FFFFFFFFFFFFFFFFFFFFFFFFFFFFFFFFCE
:10024000FFFFFFFFFFFFFFFFFFFFFFFFFFFFFFFFBE
:10025000FFFFFFFFFFFFFFFFFFFFFFFFFFFFFFFFAE
:10026000FFFFFFFFFFFFFFFFFFFFFFFFFFFFFFFF9E
:10027000FFFFFFFFFFFFFFFFFFFFFFFFFFFFFFFF8E
:10028000FFFFFFFFFFFFFFFFFFFFFFFFFFFFFFFF7E
:10029000FFFFFFFFFFFFFFFFFFFFFFFFFFFFFFFF6E
:1002A000FFFFFFFFFFFFFFFFFFFFFFFFFFFFFFFF5E
:1002B000FFFFFFFFFFFFFFFFFFFFFFFFFFFFFFFF4E
:1002C000FFFFFFFFFFFFFFFFFFFFFFFFFFFFFFFF3E
:1002D000FFFFFFFFFFFFFFFFFFFFFFFFFFFFFFFF2E
:1002E000FFFFFFFFFFFFFFFFFFFFFFFFFFFFFFFF1E
:1002F000FFFFFFFFFFFFFFFFFFFFFFFFFFFFFFFF0E
:1003000008B500220221032001F059FA044B1860BD
:1003100000B108BD01212D2004F068F9FEE700BFFF
:10032000587900100180428080ED090AC0ED010A71
:1003300080ED021AC0ED031A80ED042AC0ED052AF3
:1003400080ED063AC0ED073A80ED084A7047FFFF9E
:1003500000B583B004E0192B02D1114B114A5A6247
:100360004FF0FF320DF106010F4B186801F072FBE0
:100370000128F5D1BDF80630322B08D0EBD94B2B34
:1003800009D0642BECD1064B084A5A62E8E7044BCB
:10039000074A5A62E4E7024B064A5A62E0E700BFA6
:1003A000307900103F358E3E58790010DBF95E3F02
:1003B000DBF9DE3E643B273F10B582B00024019498
:1003C000032003F09FFE01468DF80300032003F095
:1003D000EBFE0E49032003F0F4FE234601AA0DF1C3
:1003E00003010B48006801F0CFFA019B012B01D0FB
:1003F00002B010BD002BFBD0064B4FF080521A60AC
:10040000BFF34F8FBFF36F8FF2E700BFC8A2001A90
:10041000780A001004ED00E008B5002201216420F4
:1004200001F0CDF9044B186000B108BD01212B206B
:1004300004F0DCF8FEE700BF780A001008B54FF4BE
:10044000E131032003F072FE0023054A1946032020
:1004500003F0EEFD0121032003F0A2FD08BD00BF63
:10046000B903001A30B589B003AB029300240AE047
:10047000002515552B464FF0FF3202A90B480068A6
:1004800001F0C4F92C464FF0FF320DF10701084B83
:10049000186801F0DFFA0128F5D19DF8073003AAAA
:1004A00013550A2BE4D00134E4B2ECE7687900106C
:1004B000780A001008B500220421642001F07FF9B9
:1004C000044B186000B108BD01212B2004F08EF808
:1004D000FEE700BF68790010F0B40A46002708E084
:1004E00003EB83046300013A002AF9D105FB03778B
:1004F00032462AB1561E855D303D8A1A0123F3E744
:10050000B8B2F0BC7047FFFF10B584B0002303936E
:1005100014E002F017FC039B195DB14805F082FE60
:1005200002F032FC0134E4B20398035D002BF0D1F9
:1005300003784D2B0DD0532B00F020814FF0FF326C
:1005400003A9A84B186801F085FA0128F6D1002408
:10055000EAE74378443B102BF0D801A252F823F08D
:10056000BD05001AA505001A3D05001A3D05001A33
:100570003D05001A3D05001A3D05001A3D05001A0B
:100580003D05001AD305001A3D05001A3D05001A65
:100590003D05001A3D05001A3D05001A4507001AE1
:1005A000F706001A04A9012301F8053D00234FF0C6
:1005B000FF328D48006801F029F9BFE7002304A944
:1005C00001F8053D4FF0FF328748006801F01EF941
:1005D000B4E78378532BB1D1C378303B182BADD817
:1005E00001A252F823F000BF7B06001AB706001ADA
:1005F0003D05001AD706001A3D05001A3D05001AF0
:100600003D05001A3D05001A3D05001A3D05001A7A
:100610003D05001A3D05001A3D05001A3D05001A6A
:100620003D05001A3D05001A3D05001A3D05001A5A
:100630003D05001A3D05001A3D05001A3D05001A4A
:100640004D06001A3D05001A6306001A002304A98E
:1006500001F8063D4FF0FF326448006801F0D6F81B
:100660006CE704A9012301F8063D00234FF0FF3297
:100670005E48006801F0CAF860E70379342B0ED0B9
:10068000382B7FF45BAF04A9032301F8063D002358
:100690004FF0FF325548006801F0B8F84EE704A962
:1006A000022301F8063D00234FF0FF324F48006857
:1006B00001F0ACF842E70379362B7FF43FAF04A991
:1006C000042301F8063D00234FF0FF32474800683D
:1006D00001F09CF832E70379322B7FF42FAF04A9A5
:1006E000052301F8063D00234FF0FF323F48006824
:1006F00001F08CF822E78378412B0DD0482B7FF452
:100700001DAF002304A901F8073D4FF0FF32384820
:10071000006801F07BF811E704A9012301F8073D07
:1007200000234FF0FF323248006801F06FF805E710
:100730000132D2B2835C43B1303BDBB2092BF7D933
:100740000021F5E701210222F4E719B9294805F053
:10075000CBFDF3E604210230FFF7BEFE014604ACF8
:1007600024F80A0D244805F05DFD00234FF0FF3208
:1007700021462248006801F049F8DFE64378502B13
:100780007FF4DCAE03210230FFF7A6FE044602F040
:10079000D9FA21461A4805F045FD02F0F5FA322C47
:1007A00015D007D87CB1192C7FF4C8AE154B164A6A
:1007B0005A62C3E64B2C0ED0642C7FF4BFAE114BB3
:1007C000124A5A62BAE60F4B00225A62B6E60D4B45
:1007D0000F4A5A62B2E60B4B0E4A5A62AEE600BFAF
:1007E000B8A2001A68790010A4790010AC79001042
:1007F00098790010CCA2001AE4A2001A6C790010BB
:10080000F8A2001A307900103F358E3E7593783F7C
:10081000DBF9DE3E643B273F00B585B003F068FF9F
:10082000FFF70CFE0D2303931E2302930E23019367
:10083000202300939FED450A0F231F224FF4C87118
:10084000434800F0A7F99FED430AB0EE404ADFEDC0
:10085000423AB7EE003AF0EE402A9FED402AF0EE21
:10086000401AB0EE401AF0EE400A002211463C4811
:10087000FFF758FD00F00CFB3A4805F035FDFFF797
:10088000CBFD00F007F9FFF715FEFFF739FD00F08B
:100890004FF900240194012600962346B4223249E0
:1008A000324801F018FC0194032500952346B42238
:1008B0002F49304801F00FFC0194009523464FF476
:1008C00007722D492D4801F006FC0194009523463E
:1008D000B4222B492B4801F0FEFB019400952346DE
:1008E0004FF487722849294801F0F5FB01940095DF
:1008F0002346B4222649274801F0EDFB0194042544
:10090000009523464FF487722349244801F0E3FB06
:10091000019400952346B4222149224801F0DBFBD3
:100920000194009523464FF4B4721F491F4801F00B
:10093000D2FB0194009623464FF4B4721C491D4823
:1009400001F0C9FB01F0FAFBFEE700BF6666663FF7
:100950007479001000000000766EDA3B9A99993F96
:100960003079001008A3001A2CA3001AB909001A44
:1009700038A3001A6504001A58A3001A0905001AC2
:1009800080A3001AF90B001AA8A3001AC90D001AB7
:10099000C8A3001A610C001A00A4001AC90C001A9E
:1009A00028A4001A410D001A58A4001A5103001A75
:1009B00078A4001AA10E001A00B583B001F010FC53
:1009C00001902A2003F07BFE4FF4FA7101A801F098
:1009D00013FDF6E700B583B0124B5B7D012B17D1F9
:1009E000114B1B78012B09D000210E4B93F90C0001
:1009F00003F0FCFD0C4B01221A700FE00121094BA2
:100A000093F90C0003F0F2FD074B00221A7005E089
:100A1000002200921346032101F0B2FF03B05DF8FB
:100A200004FB00BF747900100100001010B582B003
:100A3000154B1B88E3B1154B1B78012B0ED0002101
:100A4000134B93F90C0003F0D1FD104B01221A70E7
:100A50000D4A1388013B138002B010BD01210C4BDD
:100A600093F90C0003F0C2FD084B00221A70F3E763
:100A70000024009423462246032101F081FF2146F1
:100A80002B2003F0B3FDE7E7A07900100000001071
:100A90007479001008B500220121032000F08FFEB8
:100AA0001E4B186060B100220121032000F087FE78
:100AB0001B4B186048B901212C2003F097FDFEE77D
:100AC00001212C2003F092FDFEE7002201210320EA
:100AD00000F075FE134B186020B901212C2003F0A3
:100AE00085FDFEE700220221032000F068FE0E4B88
:100AF000186040B100220121052000F060FE0B4B80
:100B0000186028B108BD01212C2003F06FFDFEE71D
:100B100001212C2003F06AFDFEE700BFA47900103C
:100B2000AC790010987900106C7900109C79001055
:100B300000B583B0114B00930023012264211048BB
:100B400001F002FF0F4B186068B10F4B00930023B8
:100B5000012214210D4801F0F7FE0D4B186038B149
:100B600003B05DF804FB01212C2003F03FFDFEE7FC
:100B700001212C2003F03AFDFEE700BF2D0A001AE8
:100B800068A5001A94790010D509001A74A5001AF6
:100B9000A879001010B504460160027343739DF9F3
:100BA000083083739DF90C30C3739DF910300374C2
:100BB0009DF91430437480ED070A0121104603F0BB
:100BC0003FFC012194F90D0003F03AFC012194F956
:100BD0000E0003F035FC012194F90F0003F030FC06
:100BE000012194F9100003F02BFC012194F911006C
:100BF00003F026FC10BDFFFF00B583B00BE0144CE2
:100C0000002194F90E0003F0F1FC9DF80730E37425
:100C1000104805F069FB4FF0FF320DF107010E4B54
:100C2000186800F017FF0128F5D19DF80730002B58
:100C3000E5D0012BEFD1064C012194F90E0003F011
:100C4000D5FC9DF80730E374044805F04DFBE2E75E
:100C500074790010BCA4001AA4790010A8A4001A8A
:100C600000B583B00BE0144C012194F90D0003F0A2
:100C7000BDFC9DF80730A374104805F035FB4FF01C
:100C8000FF320DF107010E4B186800F0E3FE01285A
:100C9000F5D19DF80730002BE5D0012BEFD1064CA4
:100CA000002194F90D0003F0A1FC9DF80730A37416
:100CB000044805F019FBE2E77479001008A5001A52
:100CC0009879001018A5001A00B585B00023ADF87A
:100CD0000E304FF0FF320DF10E01134B186800F08B
:100CE000B9FE0128F5D1BDF80E10104805F09AFAAA
:100CF000BDF80E200E4B9A800E490A80002193F910
:100D00000C0003F073FC0C4B1C6801F069FA002323
:100D1000009302460121204601F032FE0028D8D17E
:100D2000064805F0E1FAD4E76C790010E4A2001A55
:100D300074790010A0790010947900102CA5001A85
:100D400000B585B04FF0FF320DF10F010F4B186861
:100D500000F080FE0128F5D10D4B9DF80F205A754B
:100D6000002193F90C0003F041FC0A4B1C6801F0D0
:100D700037FA0023009302460121204601F000FECD
:100D80000028DFD1044805F0AFFADBE79C790010BA
:100D900074790010A87900102CA5001A70B50E46C1
:100DA0001546084C014694F90F0003F01FFC31462C
:100DB00094F9100003F01AFC294694F9110003F08D
:100DC00015FC70BD7479001000B583B007E00022F7
:100DD00011461046FFF7E2FF264805F085FA4FF06E
:100DE000FF320DF10701244B186800F033FE012893
:100DF000F5D19DF80730052BF1D801A252F823F068
:100E0000CF0D001A190E001A2B0E001A3D0E001AF3
:100E10004F0E001A610E001A002211460120FFF742
:100E2000BDFF164805F060FAD9E7002201211046FF
:100E3000FFF7B4FF124805F057FAD0E7002201216E
:100E40000846FFF7ABFF0F4805F04EFAC7E701224F
:100E500000210846FFF7A2FF0B4805F045FABEE760
:100E6000012211461046FFF799FF084805F03CFAA9
:100E7000B5E700BFD0A4001AAC790010DCA4001ABA
:100E8000E8A4001AF0A4001AF8A4001A00A5001A99
:100E900008B5002003F032FA08BDFFFFFFFFFFFF97
:100EA0002DE9F04782B001F09BF90190B64B012289
:100EB0009A72DA7200242546A246D8E0002003F098
:100EC00079FAB24B5A88104458800134A4B2042CE9
:100ED000F4D9AE4C6088AE4BA3FB0030800803F021
:100EE000D5FDA1A3D3E9002303F03AFE04F0D2F824
:100EF00007EE100A606000236380D4ED097A77EE74
:100F0000C77AC4ED027A17EE900A03F0D1FD0646C7
:100F10000F4697A3D3E9002304F09EF848B196A3A7
:100F2000D3E900233046394604F0A0F808B1002286
:100F3000A260964BD3ED077A93ED027A67EE877A3B
:100F4000D3ED036A77EEA67AC3ED037A93ED046AD4
:100F5000F4EEC67AF1EE10FA01DD83ED036A8B4BF5
:100F6000D3ED037AD3ED056AF4EEE67AF1EE10FAEA
:100F700001D5C3ED036A854BD3ED067A67EE277A78
:100F8000D3ED035A77EEA57AC3ED087AB4EEE76A9B
:100F9000F1EE10FA01D583ED086A7C4BD3ED087AA7
:100FA000F4EEE76AF1EE10FA01DDC3ED086A17EE20
:100FB000100A03F07DFD02460B46764805F032F933
:100FC000724B186A03F074FD02460B46724805F036
:100FD00029F96D4B586803F06BFD02460B466F48CC
:100FE00005F020F90024A24648E000246FE7664C93
:100FF0000025264606F8085FDFF8A8812B464FF04B
:10100000FF323146D8F8000000F000FC01272146ED
:1010100001F8097F2B464FF0FF326148006800F06D
:10102000F5FB27722B464FF0FF323146D8F800000F
:1010300000F0ECFBA572E7722C4614E050A3D3E954
:1010400000234046494603F0D5FB02460B462046A6
:10105000294604F015F8002872D04B4BDB7A012B9F
:1010600047D0002425460A2101A801F0C5F90AF15C
:10107000010A1FFA8AFABAF1630FB6D8012003F009
:1010800099F90544ADB20134A4B2052CEBD1404826
:10109000A0FB0530C0F38F0003F0F8FC32A3D3E9C6
:1010A000002303F05DFD03F0F5FF0446364B586066
:1010B000364B186A03F0FCFC8046894630A3D3E91E
:1010C000002303F095FB06460F46204603F0F0FC94
:1010D00004460D4602460B463046394603F0D0FF23
:1010E0000028ABD0284B9B7A012B80D000242546CA
:1010F000B9E7254C0025264606F8085FDFF8A480EE
:101100002B464FF0FF323146D8F8000000F07EFB4E
:10111000214601F8095F2B464FF0FF322048006856
:1011200000F074FB012727722B464FF0FF32314647
:10113000D8F8000000F06AFBA772E5722C4692E72F
:10114000114C0025214601F8085F2B464FF0FF3275
:101150001448006800F05AFB0123A372E3722C4686
:1011600081E700BFAFF30080FF092E56D4606A3FCD
:10117000D0D03FC1C58A6A3FD0D03FC1C58A6ABFBF
:10118000FF092E56D4608A3FB079001030790010E4
:10119000CDCCCCCC84A5001A90A5001AA4A5001A29
:1011A000987900109C7900107047FFFF10B572B657
:1011B000194B1A4A1A600433194A1A60002305E0D1
:1011C000184A4FF0FF3142F823100133072BF7D9AB
:1011D00062B6154B07E003F10C049A685968186869
:1011E000FEF7D3FF2346114A9342F4D306E01C4690
:1011F000596854F8080BFEF7D7FF23460C4A934270
:10120000F5D302F03FFE04F029FCFFF7CDFFFFF716
:1012100003FB30BFFDE700BF003105400010DF10C9
:10122000FFF7DF0180E200E01401001A5001001A0C
:101230007801001A70477047092303604FF0FF30B0
:101240007047582303604FF0FF307047022901D8E0
:1012500001207047092303604FF0FF307047582387
:1012600003604FF0FF30704702291FD82DE9F0418D
:101270001D46174606460024AC4211D201F0B9FFC4
:10128000B0F1FF3FF8D004F1010838550D2803D024
:101290000A2801D04446EFE701F0ABFF404603E0E7
:1012A000132333604FF0FF30BDE8F0811323036058
:1012B0004FF0FF30704702290CD870B51D46164616
:1012C000002403E0305D01F08FFF0134AC42F9D31C
:1012D000284670BD132303604FF0FF307047FFFFB7
:1012E000054B1B6823B1044B186801441960704713
:1012F000014B024A1A60F6E77C0A0010287A0010B7
:10130000124A12F0070F1ED0D11D21F00701C1F5BE
:10131000C84313440A460E4802600021416013444A
:10132000083B23F007030B48036059601960991AC2
:1013300051601360084B1960084B1960084B4FF05F
:1013400000421A6070474FF4C843E4E7840A001073
:10135000906E0010800A00108C6E0010886E0010D5
:10136000846E001010B4134B1A6882421BD3596864
:101370005C18844203D140680144596018464168B2
:101380004418A24213D10C4C2468A2420DD05268DA
:10139000114441601A6812680260984200D01860D7
:1013A0005DF8044B70471346DEE70460F5E7026022
:1013B000F3E700BF906E0010800A001070B504467D
:1013C00000F006FF3F4B1B68A3B13F4B1B681C425C
:1013D00013D000F097FF002600F09CFC16F0070FDA
:1013E0006ED04FF0200383F31188BFF36F8FBFF3EC
:1013F0004F8FFEE7FFF784FFE7E794B1083414F05E
:10140000070F0ED024F00704083404F0070343B19B
:101410004FF0200383F31188BFF36F8FBFF34F8F1B
:10142000FEE734B1294B1B68A34206D3284B1D6845
:1014300009E000F067FF0026CEE700F063FF00261A
:10144000CAE72B4615466A68A24202D22A68002AD9
:10145000F7D11C4A1268AA4214D01E6808362A68BE
:101460001A606B681B1B102B14D9281910F0070F7A
:101470000CD04FF0200383F31188BFF36F8FBFF3BD
:101480004F8FFEE700F03EFF0026A5E743606C604B
:10149000FFF768FF6A680D490B689B1A0B600D49DE
:1014A00009688B4201D20B490B60074B1B68134341
:1014B0006B6000232B6000F025FF002E8ED18BE7A0
:1014C000304670BD800A0010846E0010886E0010D7
:1014D000906E00108C6E001080B338B50446A0F1F9
:1014E000080550F8042C164909680A4208D14FF043
:1014F000200383F31188BFF36F8FBFF34F8FFEE795
:1015000050F8080C40B14FF0200383F31188BFF36B
:101510006F8FBFF34F8FFEE722EA010244F8042CDD
:1015200000F056FE54F8041C064A13680B4413607E
:101530002846FFF717FF00F0E5FE38BD704700BFF3
:10154000846E0010886E001010B5044601F0FAFB9E
:10155000A26BE36B9A4204D0002401F015FC2046F4
:1015600010BD0124F9E710B5044601F0EBFBA36BB5
:1015700023B1002401F008FC204610BD0124F9E746
:1015800070B504461646856B026C5AB903681BB1E8
:1015900000200135A56370BD406801F0BFF800234D
:1015A0006360F6E76EB9806804F04CFD226CA368B6
:1015B0001344A3606268934219D32368A360002098
:1015C000E7E7C06804F03EFD226C5242E368134432
:1015D000E36021688B4202D263681A44E260022E03
:1015E00001D00020D5E725B1013D0020D1E7002042
:1015F000CFE70020CDE7026C72B110B5C368134489
:10160000C3604468A34201D30368C3600C46C16849
:10161000204604F017FD10BD704738B5054601F0AF
:1016200091FB95F8454064B203E001F061F8013C9C
:1016300064B2002C08DD6B6A33B105F1240000F0C0
:10164000C5FF0028F3D0F0E7FF2385F8453001F00F
:101650009BFB01F077FB95F8444064B203E001F096
:1016600047F8013C64B2002C08DD2B6933B105F169
:10167000100000F0ABFF0028F3D0F0E7FF2385F85F
:10168000443001F081FB38BD38B540B94FF020033C
:1016900083F31188BFF36F8FBFF34F8FFEE70446CC
:1016A0000D4601F04FFB2168E26B236C03FB021037
:1016B00060600020A063A160013A02FB0313E360B5
:1016C000FF2384F8443084F84530A5B923691BB959
:1016D00001F05AFB012038BD04F1100000F076FF44
:1016E0000028F5D0084B4FF080521A60BFF34F8F9F
:1016F000BFF36F8FECE704F1100000F094FA04F1EF
:10170000240000F090FAE3E704ED00E038B51D4650
:10171000049C0B4649B12260E0632364012120460A
:10172000FFF7B2FF84F84C5038BD2460F4E740B9AD
:101730004FF0200383F31188BFF36F8FBFF34F8FF8
:10174000FEE710B584B0044653B192B189B94FF0A9
:10175000200383F31188BFF36F8FBFF34F8FFEE732
:101760004FF0200383F31188BFF36F8FBFF34F8FC8
:10177000FEE74AB941B14FF0200383F31188BFF36C
:101780006F8FBFF34F8FFEE75020039003985028D0
:1017900008D04FF0200383F31188BFF36F8FBFF39E
:1017A0004F8FFEE720461C46012384F84630009404
:1017B0009DF81830FFF7AAFF204604B010BD40B9CD
:1017C0004FF0200383F31188BFF36F8FBFF34F8F68
:1017D000FEE7F0B583B0064611B101FB00F000E072
:1017E000002017460C465030FFF7E8FD054650B183
:1017F000002380F8463000903B4600F1500221461D
:101800003046FFF783FF284603B0F0BDF0B585B042
:10181000019260B1044699B9026C8AB14FF020037D
:1018200083F31188BFF36F8FBFF34F8FFEE74FF045
:10183000200383F31188BFF36F8FBFF34F8FFEE751
:10184000022B0BD1E26B012A08D04FF0200383F367
:101850001188BFF36F8FBFF34F8FFEE71E460F4611
:1018600000F04CFF50B9019B53B14FF0200383F3BC
:101870001188BFF36F8FBFF34F8FFEE700253AE06B
:10188000002538E0324639462046FFF779FE636A84
:101890004BB9A8B13B4B4FF080521A60BFF34F8F4A
:1018A000BFF36F8F0CE004F1240000F08FFE38B11D
:1018B000344B4FF080521A60BFF34F8FBFF36F8FDE
:1018C00001F062FA012005B0F0BD01F05DFA0020E0
:1018D000F9E702A800F0C0FE012519E0002384F812
:1018E000443021E0002384F8453023E02046FFF710
:1018F00094FE00F007FD01F025FAA26BE36B9A421B
:10190000C0D3022EBED0019B002BDED0002DE0D034
:1019100001F03AFA00F05CFC01F014FA94F844305B
:101920005BB2B3F1FF3FD9D094F845305BB2B3F16D
:10193000FF3FD7D001F028FA01A902A800F098FED5
:10194000C8B92046FFF700FE0028CFD0019904F166
:10195000100000F007FE2046FFF75FFE00F0D2FC0B
:101960000028C8D1074B4FF080521A60BFF34F8F49
:10197000BFF36F8FBFE72046FFF74FFE00F0C2FCBA
:101980000020A0E704ED00E02DE9F84360B1044633
:1019900099B9006C88B14FF0200383F31188BFF32D
:1019A0006F8FBFF34F8FFEE74FF0200383F3118853
:1019B000BFF36F8FBFF34F8FFEE7022B0BD1E06BAE
:1019C000012808D04FF0200383F31188BFF36F8FF5
:1019D000BFF34F8FFEE71F469046894601F0DCFAC1
:1019E000EFF311864FF0200383F31188BFF36F8F5D
:1019F000BFF34F8FA26BE36B9A4203D3022F01D048
:101A000000200FE094F845506DB23A464946204612
:101A1000FFF7B6FDB5F1FF3F08D06B1C5BB284F851
:101A20004530012086F31188BDE8F883636A5BB115
:101A300004F1240000F0CAFD40B1B8F1000F07D056
:101A40000120C8F80000EDE70120EBE70120E9E7FD
:101A50000120E7E7F0B585B0019260B1044699B97D
:101A6000036C8BB14FF0200383F31188BFF36F8FAA
:101A7000BFF34F8FFEE74FF0200383F31188BFF3CE
:101A80006F8FBFF34F8FFEE70F4600F037FE50B960
:101A9000019B53B14FF0200383F31188BFF36F8F85
:101AA000BFF34F8FFEE700263EE000263CE03946BC
:101AB0002046FFF7A0FD013DA563236923B901F08E
:101AC00063F9012005B0F0BD04F1100000F07EFDC7
:101AD0000028F4D0344B4FF080521A60BFF34F8F80
:101AE000BFF36F8FEBE701F04FF90020EAE702A8A0
:101AF00000F0B2FD012621E0002384F8443029E003
:101B0000002384F845302BE02046FFF786FD00F0E7
:101B1000F9FB09E02046FFF780FD00F0F3FB2046CB
:101B2000FFF721FD00283DD101F00CF9A56B002D38
:101B3000BDD1019B002BD6D0002ED8D001F024F9C6
:101B400000F046FB01F0FEF894F844305BB2B3F1CC
:101B5000FF3FD1D094F845305BB2B3F1FF3FCFD017
:101B600001F012F901A902A800F082FD0028D1D1EC
:101B70002046FFF7F8FC0028C6D0019904F12400A4
:101B800000F0F0FC2046FFF748FD00F0BBFB00280A
:101B9000CAD1054B4FF080521A60BFF34F8FBFF38D
:101BA0006F8FC1E700208DE704ED00E00023072BD5
:101BB0000CD8074A52F833200AB10133F7E7044A38
:101BC00042F8331002EBC30358607047704700BF00
:101BD000BC79001070B504460D46164601F0B2F807
:101BE00094F844305BB2B3F1FF3F0DD094F8453028
:101BF0005BB2B3F1FF3F0BD001F0C6F8A36B5BB152
:101C00002046FFF70AFD70BD002384F84430EDE75D
:101C1000002384F84530EFE73246294604F12400DA
:101C200000F0B8FCECE700F1080343604FF0FF322E
:101C30008260C36003610023036070470023036177
:101C4000704743684B609A688A609A6851609960EF
:101C50000861036801330360704730B40D68B5F163
:101C6000FF3F02D000F1080202E0026904E01A46D8
:101C700053681C68AC42FAD953684B6099608A601B
:101C80005160086103680133036030BC7047036929
:101C90004268816891608268416851605A688242F6
:101CA00006D0002202611A68013A1A60186870476B
:101CB00082685A60F5E7FFFF034B0360034B0B603C
:101CC0005A231360704700BFA0750010986E001073
:101CD000034B0360034B0B604FF4B4731360704706
:101CE000007600100070001010B582B00C46019014
:101CF0000023009301F026F801992246044804F0DD
:101D000091FA009B002BFCD001F03EF802B010BD10
:101D100034A6001A08B5044804F0E6FA03492C205A
:101D2000FFF7E2FF08BD00BFC0A5001AE4A5001A36
:101D300008B5044804F076FA03495020FFF7D4FFB1
:101D400008BD00BF04A6001AE4A5001A084B1B68D2
:101D50001B683BB1064B1B68DB68DB685A68054BA8
:101D60001A607047034B4FF0FF321A60704700BF94
:101D700064760010387700102DE9F04781460D4653
:101D800017469A46089EDDF824800A9C9200A521F9
:101D9000206B04F0F1F9236B07F18042013A03EB69
:101DA000820727F00707676400230F2B07D8E95C39
:101DB000E21882F83410EA5C0AB10133F5E7002337
:101DC00084F84330062E00D90626E66226650025F3
:101DD0006565201DFFF732FF04F11800FFF72EFFA5
:101DE0002461C6F10706A6616462A56584F85C50AB
:101DF00052464946384600F07DFF2060B8F1000F9A
:101E000001D0C8F80040BDE8F087FFFF38B50024D6
:101E100007E004EB840293000E481844FFF703FF29
:101E20000134062CF5D90C4D2846FFF7FCFE0B4C6F
:101E30002046FFF7F8FE0A48FFF7F5FE0948FFF7CE
:101E4000F2FE0948FFF7EFFE084B1D60084B1C60CF
:101E500038BD00BF6C76001010770010247700109A
:101E6000407700106C7700105877001064760010EF
:101E70006876001010B5044600F064FF214A13682C
:101E800001331360204B1B685BB1204B1B686BB99F
:101E90001D4B1B68DA6AE36A9A4207D81A4B1C602A
:101EA00004E0194B1C601368012B27D0184A1368F3
:101EB00001331360A364E36A01229A40154908685C
:101EC00002430A6003EB83039A00211D1248104469
:101ED000FFF7B7FE00F058FF0C4B1B686BB10A4BC5
:101EE0001B68DA6AE36A9A4207D20C4B4FF08052C1
:101EF0001A60BFF34F8FBFF36F8F10BDFFF786FFE0
:101F0000D4E700BFF8760010607600105477001018
:101F1000087700100C7700106C76001004ED00E0DC
:101F200010B5044690F85D3033B9006BFFF7D4FA72
:101F30002046FFF7D1FA10BD012B0AD0022BFAD0B0
:101F40004FF0200383F31188BFF36F8FBFF34F8FE0
:101F5000FEE7FFF7C1FAEEE70F4B1B68D3B110B5F0
:101F600000F0F0FE0D4BDB68DC68201DFFF78FFEF4
:101F70000B4A1368013B1360074A1368013B136067
:101F800000F002FF2046FFF7CBFF034B1B68002B3E
:101F9000E6D110BD704700BFFC7600106C770010D2
:101FA000F876001008B5FFF7D7FF064B1B68012B2A
:101FB000F9D9054B4FF080521A60BFF34F8FBFF332
:101FC0006F8FF0E76C76001004ED00E070B504460A
:101FD0000E461D4B1D681D4B18680430FFF757FE59
:101FE00050B91A4B1B68DA6A012303FA02F2184946
:101FF0000B6823EA02030B60B4F1FF3F13D02C44BB
:10200000124B1B685C60A54216D8124B18680F4B28
:1020100019680431FFF721FE0F4B1B68A34212D948
:102020000D4B1C600FE0002EE9D0084B19680431FD
:102030000A48FFF706FE06E0094B1868034B1968CB
:102040000431FFF70AFE70BD807700106076001043
:102050000C77001064760010387700105877001065
:102060006876001070B586B00B9D0C9C45B94FF09A
:10207000200383F31188BFF36F8FBFF34F8FFEE709
:1020800044B94FF0200383F31188BFF36F8FBFF380
:102090004F8FFEE760260496049E602E08D04FF016
:1020A000200383F31188BFF36F8FBFF34F8FFEE7D9
:1020B0002563022584F85D5000250395029405AD43
:1020C00001950A9D0095FFF757FE2046FFF7D2FEC7
:1020D000059806B070BD2DE9F04385B007468846E7
:1020E000154699469000FFF769F908B30646602047
:1020F000FFF764F90446B8B10663E4B1002384F83D
:102100005D30039302940D9B01930C9B00934B460F
:102110002A4641463846FFF72FFE2046FFF7AAFE23
:10212000012005B0BDE8F0833046FFF7D5F9E4E7BC
:102130004FF0FF30F5E74FF0FF30F2E710B588B011
:1021400000240594069407AA06A905A8FFF7B4FD84
:10215000059B0293069B019300942346079A174917
:102160001748FFF77FFF40B100F0BCFB012806D005
:10217000B0F1FF3F18D008B010BD0020F6E74FF0D7
:10218000200383F31188BFF36F8FBFF34F8F0D4B85
:102190004FF0FF321A600C4B01221A600B4B0022E9
:1021A0001A6000F071FEE6E74FF0200383F3118818
:1021B000BFF36F8FBFF34F8FFEE700BF74A6001A07
:1021C000A51F001A38770010547700108077001090
:1021D000024A136801331360704700BF0477001090
:1021E000014B1868704700BF80770010F8B53A4B74
:1021F0001B68002B64D1394B1D6801351D60C5B9C2
:10220000374B1B681B6843B14FF0200383F31188E1
:10221000BFF36F8FBFF34F8FFEE7314A1168314B29
:10222000186810601960304A136801331360FFF7B3
:102230008DFD2E4B1B68AB4238D900242C4B1B68FC
:10224000DB6A03EB83039A002A4B9B58012B3CD992
:1022500001243AE00124224B1B681B6843B3204B46
:102260001B68DB68DE6873689D4226D3371D3846DD
:10227000FFF70DFDB36A1BB106F11800FFF707FD6C
:10228000F36A01229A401C49086802430A6003EB82
:1022900083039A00394617481044FFF7D2FCF26ACC
:1022A000134B1B68DB6A9A42D4D2D4E70024D2E7EE
:1022B0000E4B4FF0FF321A60C0E70C4A1360BDE7C7
:1022C0000E4A13680133136000240D4B1B6803B1E1
:1022D00001242046F8BD00BF04770010807700106D
:1022E00064760010687600103C7700103877001094
:1022F000607600106C7600100C77001000770010EC
:102300008477001038B5334B1B6843B94FF0200376
:1023100083F31188BFF36F8FBFF34F8FFEE700F099
:1023200011FD2C4B1A68013A1A601B68002B4DD125
:10233000294B1B6823B9002400F026FD204638BD38
:102340000024264B1B681BB3244BDB68DC6804F1BC
:102350001800FFF79CFC251D2846FFF798FCE36A50
:1023600001229A401E49086802430A6003EB830376
:102370009A0029461B481044FFF763FCE26A1A4B97
:102380001B68DB6A9A42DCD3184B01221A60D8E73B
:102390000CB1FFF7DBFC164B1C6854B1FFF726FFAE
:1023A00010B1124B01221A60013CF7D1104B0022F0
:1023B0001A600E4B1B685BB10E4B4FF080521A60D7
:1023C000BFF34F8FBFF36F8F0124B5E70024B3E74E
:1023D0000024B1E704770010F87600104077001071
:1023E0000C7700106C760010607600108477001077
:1023F0000077001004ED00E038B550B1054689B90A
:102400004FF0200383F31188BFF36F8FBFF34F8F1B
:10241000FEE74FF0200383F31188BFF36F8FBFF304
:102420004F8FFEE71A4B1B6843B14FF0200383F335
:102430001188BFF36F8FBFF34F8FFEE70C46FFF796
:10244000C7FE144B18682A681444824218D9A24265
:102450000CD82C60FFF756FF38B90F4B4FF0805265
:102460001A60BFF34F8FBFF36F8F38BDA04201D307
:102470002C60EFE72C600021201AFFF7A7FDE9E7A9
:10248000A24201D8A04201D22C60F4E72C60E1E71F
:10249000047700108077001004ED00E02C4B1B68DF
:1024A0001BB12C4B01221A60704710B5294B00223A
:1024B0001A60294B1B681B6B1A68B2F1A53F03D148
:1024C0005A68B2F1A53F1BD0234B18681968343104
:1024D000FFF72EFC214B1B68B3FA83F3DBB2C3F189
:1024E0001F0303EB83018A001D498A588AB94FF004
:1024F000200383F31188BFF36F8FBFF34F8FFEE785
:102500009A68B2F1A53FDFD1DB68B3F1A53FDBD11B
:10251000E0E713489A00D418A10001444C686468AD
:102520004C601A44910008310844844209D003EBFE
:1025300083039A000A4B13445B68DA68064B1A60FF
:1025400010BD61680648142202FB03025160EEE7E9
:102550000477001084770010607600100C7700106C
:102560006C76001040B94FF0200383F31188BFF35D
:102570006F8FBFF34F8FFEE710B50C46044B196801
:102580001831FFF76AFB01212046FFF71FFD10BD40
:102590006076001038B540B94FF0200383F31188FE
:1025A000BFF36F8FBFF34F8FFEE70C461546064A09
:1025B00011681831FFF745FB0DB14FF0FF34294684
:1025C0002046FFF703FD38BD6076001038B5C368BC
:1025D000DC6844B94FF0200383F31188BFF36F8F99
:1025E000BFF34F8FFEE704F118052846FFF74FFBB6
:1025F000134B1B68E3B9251D2846FFF748FBE36A28
:1026000001229A400F49086802430A6003EB8303E2
:102610009A0029460C481044FFF713FBE26A0B4B63
:102620001B68DB6A9A4208D90120094B186038BD43
:1026300029460848FFF705FBF0E70020F7E700BF51
:10264000047700100C7700106C7600106076001094
:102650008477001040770010034B1B680360034B26
:102660001B684360704700BF3C7700108077001004
:10267000F8B550B1054689B94FF0200383F31188AE
:10268000BFF36F8FBFF34F8FFEE74FF0200383F34D
:102690001188BFF36F8FBFF34F8FFEE70C4600F03A
:1026A00051FB114B196868680A1A2368B3F1FF3FA0
:1026B00016D02F680D4E3668B74201D0884211D926
:1026C000934203D800232360012405E09B1A236072
:1026D0002846FFF7C1FF002400F056FB2046F8BD56
:1026E0000024F9E70124F7E7807700103C77001019
:1026F000014B01221A60704784770010054B1B685C
:1027000033B1054B1B680BB10020704702207047A6
:10271000012070475477001004770010002849D03A
:1027200038B50446264A1268824208D04FF020038A
:1027300083F31188BFF36F8FBFF34F8FFEE7426DB6
:1027400042B94FF0200383F31188BFF36F8FBFF3BB
:102750004F8FFEE7013A4265C06A216D88422BD057
:1027600062BB251D2846FFF792FA70B9E26A14236E
:1027700003FB02F31349CB583BB9012303FA02F2DE
:1027800011490B6823EA02030B60236DE362C3F176
:102790000702A261012404FA03F20B49086802430C
:1027A0000A602946074A142000FB0320FFF749FA74
:1027B000204638BD002070470020FAE70020F8E7E7
:1027C000607600106C7600100C770010064B1A68CB
:1027D0001368B3FA83F35B09036013B9D36818680D
:1027E00070470020704700BF8877001008B541602F
:1027F000006191420CD8D21A83699A4201D3012018
:1028000010E0011D094B1868FFF727FA002009E0C6
:102810009A4201D2994206D2011D054B1868FFF772
:102820001CFA002008BD0120FCE700BF8C770010D7
:102830008877001030B583B000F084FA114B1B6824
:102840001BB100F0A1FA03B030BD0F4D2846FFF7D1
:10285000EAF90E4C2046FFF7E6F90D4B1D600D4BD3
:102860001C60002300930C4B0C4A10210A20FEF739
:102870005EFF044B18600028E3D00949FFF796F982
:10288000DFE700BFAC78001030780010447800100B
:10289000887700108C7700105C780010907700101B
:1028A0007CA6001A2DE9F041079C41B94FF02003A6
:1028B00083F31188BFF36F8FBFF34F8FFEE70F468F
:1028C00074B11D4616468046FFF7B4FFC4F8008079
:1028D000A761E6612562069B6362201DFFF7AEF9E2
:1028E000BDE8F08110B588B0FFF7A4FF124B1B685C
:1028F000CBB100240594069407AA06A905A8FFF702
:10290000E7F9059B0293069B01930423009323465A
:10291000079A0A490A48FFF7A5FB0A4B186010B14D
:10292000012008B010BD4FF0200383F31188BFF3DE
:102930006F8FBFF34F8FFEE7AC78001084A6001AAC
:10294000612C001AB07800102DE9F04182B00546E4
:102950000E46174698463020FEF730FD044658B123
:102960000190089B009343463A4631462846FFF7BC
:1029700099FF002384F82C30204602B0BDE8F08196
:10298000C8B130B585B015460446174A106840B343
:102990001A4600910195029405291DDCFFF7AEFE51
:1029A000022811D000231A4669460F480068FEF736
:1029B0002DFF05B030BD4FF0200383F31188BFF326
:1029C0006F8FBFF34F8FFEE70023089A69460648D2
:1029D0000068FEF71BFFECE700236946FEF7D4FF13
:1029E000E7E70020E5E700BFAC78001070B582B0E3
:1029F0001A4B1B681A6852B3DB681E68DC68251D19
:102A00002846FFF744F9636A20469847E369012B9B
:102A1000EED1A36933449E4207D263602461294604
:102A20000E4B1868FFF719F9E2E7002100910B46F9
:102A300032462046FFF7A4FF0028D9D14FF02003EB
:102A400083F31188BFF36F8FBFF34F8FFEE7044A04
:102A5000106802490860136002B070BD88770010EA
:102A60008C77001038B50546FFF7BAFB0446074BD4
:102A70001B68834205D800232B60044B1C60204652
:102A800038BDFFF7B3FF01232B60F6E7587800103D
:102A900070B582B005460E46144B1B68DB68DC68D7
:102AA000201DFFF7F4F8E369012B04D0636A204688
:102AB000984702B070BDA1692B4632462944204692
:102AC000FFF794FE0028F1D0002100910B462A4622
:102AD0002046FFF755FF0028E8D14FF0200383F38D
:102AE0001188BFF36F8FBFF34F8FFEE78877001019
:102AF00070B582B006460C46FFF76AFB01A8FFF7E7
:102B0000B1FF019B1BBB05460CB9B04218D22CB1DA
:102B1000114B1B681C68B4FA84F464092246711BCB
:102B20000E4B1868FFF756F8FFF7ECFB88B90C4B13
:102B30004FF080521A60BFF34F8FBFF36F8F08E0E2
:102B4000FFF7E0FB29463046FFF7A2FF01E0FFF761
:102B5000D9FB02B070BD00BF8C770010AC780010BC
:102B600004ED00E030B589B002E0049B002B0FDAE1
:102B7000002204A9394B1868FEF76CFF00286AD0C0
:102B8000049B002BF1DA07990698059B9847ECE720
:102B9000069C636913B1201DFFF779F803A8FFF7BE
:102BA00061FF049B092BE3D801A252F823F000BF78
:102BB000D92B001AD92B001AD92B001A712B001A05
:102BC000212C001A472C001AD92B001AD92B001AD5
:102BD000712B001A212C001A0599A5690B46024693
:102BE00029442046FFF702FE0028C1D0636A204630
:102BF0009847E369012BBBD1A269002100910B46E4
:102C0000059802442046FFF7BBFE0028B0D14FF0E4
:102C1000200383F31188BFF36F8FBFF34F8FFEE75D
:102C20000599A16131B10346024601442046FFF7F0
:102C3000DDFD9DE74FF0200383F31188BFF36F8F15
:102C4000BFF34F8FFEE794F82C30002B90D1204635
:102C5000FEF742FC8CE709B030BD00BFAC78001035
:102C600000B583B001A8FFF7B1FD0199FFF740FF60
:102C7000FFF778FFF6E7FFFF82B0002301930D4BCB
:102C80001B68B3F1FF3F08D04FF0200383F3118896
:102C9000BFF36F8FBFF34F8FFEE74FF0200383F337
:102CA0001188BFF36F8FBFF34F8F019B002BFCD0B8
:102CB00002B070470400001008480068006880F304
:102CC00008884FF0000080F3148862B661B6BFF345
:102CD0004F8FBFF36F8F00DF00BF000008ED00E0F3
:102CE000DFF80C00016841F47001016070470000DA
:102CF00088ED00E04FF0807340F8043C21F00101C2
:102D000040F8081C054B40F80C3C40F8202C6FF0B4
:102D1000020340F8243C4438704700BF792C001A65
:102D2000074B19680868B0E8F04F80F30988BFF3D3
:102D30006F8F4FF0000080F311887047AFF3008071
:102D4000607600104FF0200383F31188BFF36F8F7C
:102D5000BFF34F8F0A4A136801331360012B00D071
:102D60007047084B1B6813F0FF0FF9D04FF020039A
:102D700083F31188BFF36F8FBFF34F8FFEE700BF60
:102D80000400001004ED00E0094B1B6843B94FF04C
:102D9000200383F31188BFF36F8FBFF34F8FFEE7DC
:102DA000013B034A13600BB983F31188704700BFDE
:102DB00004000010FFFFFFFFFFFFFFFFFFFFFFFF0B
:102DC000EFF30980BFF36F8F154B1A681EF0100FD9
:102DD00008BF20ED108A20E9F04F10602DE90900AE
:102DE0004FF0200080F31188BFF34F8FBFF36F8F38
:102DF000FFF754FB4FF0000080F3118809BC1968FD
:102E00000868B0E8F04F1EF0100F08BFB0EC108A51
:102E100080F30988BFF36F8F704700BFAFF3008066
:102E20006076001008B54FF0200383F31188BFF3DC
:102E30006F8FBFF34F8FFFF7D9F918B1034B4FF0E6
:102E400080521A60002383F3118808BD04ED00E06E
:102E5000084A0023136008490B60084B1B680849A7
:102E6000A1FB03139B09013B06490B600723136079
:102E7000704700BF10E000E018E000E0FC790010AF
:102E8000D34D621014E000E03A4B1A683A4B9A4274
:102E90000DD0384B1A68394B9A4211D14FF02003AC
:102EA00083F31188BFF36F8FBFF34F8FFEE74FF0AF
:102EB000200383F31188BFF36F8FBFF34F8FFEE7BB
:102EC00010B582B02E4B1A78D2B20192FF221A703E
:102ED0001B78DBB28DF803309DF8033003F020033C
:102EE000284A1370284B07221A6009E0264A136803
:102EF000013B13609DF803305B00DBB28DF80330BB
:102F00009DF8033013F0800FF0D11F4B1B68042B8A
:102F100008D04FF0200383F31188BFF36F8FBFF306
:102F20004F8FFEE71B0203F4E063174A1360019B17
:102F3000DBB2134A1370154B1A6842F460021A6030
:102F40001A6842F060421A60FFF782FF0024104BBB
:102F50001C60FFF7C5FE0F4A136843F0404313603F
:102F6000FFF7AAFEFFF79AFAFFF786FE204602B0A7
:102F700010BD00BF00ED00E071C20F4170C20F41F3
:102F800000E400E0B4780010B878001020ED00E014
:102F90000400001034EF00E0EFF305830F2B0FD98E
:102FA000104A9B5CDBB2104A12789A4208D94FF063
:102FB000200383F31188BFF36F8FBFF34F8FFEE7BA
:102FC0000A4B1B6803F4E063094A1268934208D96C
:102FD0004FF0200383F31188BFF36F8FBFF34F8F40
:102FE000FEE77047F0E300E0B47800100CED00E07D
:102FF000B878001008B5054B0122C3F88021044BB6
:103000001B6813B1024B1B68984708BD00E100E044
:10301000BC7800100022052A19D870B40C4911F8A8
:10302000125001EB42014C780A4B05F5006653F84B
:1030300026100120A040014343F8261003EB45135E
:10304000002119550132052AE8D970BC7047704734
:1030500098A6001A00400F400023032B16D830B466
:103060000B4911F8132001EB43014D78094C02F58F
:10307000006254F822100120A84021EA000144F81F
:1030800022100133032BEBD930BC7047704700BFCF
:1030900090A6001A00400F400023082B16D830B429
:1030A0000B4911F8132001EB43014D78094C02F54F
:1030B000006254F822100120A84021EA000144F8DF
:1030C00022100133082BEBD930BC7047704700BF8A
:1030D000A4A6001A00400F4010B582B0084C694603
:1030E000204600F02FFA074A6946204600F094FA7D
:1030F00000226946204600F0A8FA02B010BD00BFC9
:1031000000300E40801A060010B50B4C204600F02F
:103110009DFE636823F004036360236823F0FF03CC
:1031200043F0070323600549204600F070FE636802
:1031300043F00203636010BD00500C40A086010004
:1031400008B5002000F0C6F8044B40F60802C3F8AA
:10315000842C0349002000F0CFF808BD006008402F
:1031600040420F0010B5074C204600F0F7F84FF42E
:10317000E131204600F03CF90323E3600123E365DD
:1031800010BD00BF00100C40034B5B6913F0200F13
:10319000FAD0014B1860704700100C40054B5B697A
:1031A00013F0010F03D0034B1868C0B270474FF003
:1031B000FF30704700100C4008B5FFF7D3FF0948F7
:1031C00000F004FEFFF768FFFFF786FFFFF79CFFA4
:1031D000FFF7B6FFFFF71EFFFFF73EFF00F042FDCF
:1031E00008BD00BF00400F4008B5C0B2FFF7CCFFDC
:1031F00008BD08B5FFF7D2FF08BD08B5FFF7B2FF5D
:1032000008BDFFFF00231C2B12D810B4094A02EBA3
:10321000830112F823404A78488802EB4412064999
:1032200041F8220001331C2BF0D95DF8044B7047A4
:10323000704700BFC0A6001A0060084010B5174ACA
:10324000D2F8203123F4704343F41043C2F8203104
:10325000D2F8243123F4704343F41043C2F82431EC
:1032600001220F49062000F007FD00244CB10B4B52
:103270005A6822F00C025A605A6842F003025A60FF
:1032800010BD084800EB840101238A78497810F8C2
:10329000240000F029FC0134E8E700BF00300440BE
:1032A00000CB280CBCA6001A08B5FFF7ABFFFFF750
:1032B000C5FF08BD012900D07047C0EBC0008200E7
:1032C000034B13441A69137DDBB2042BFBD0F3E7E5
:1032D0000800001070B50546064EC400221A93007F
:1032E0003344988800F064FC641BA300F3586C22FC
:1032F0009A6170BD080000102DE9F0410C460B4E9C
:10330000C5002B1A4FEA830806EB0803988800F0E3
:1033100083FCB0FBF4F056F8083042081A6156F806
:1033200008301A69801A5861BDE8F0810800001061
:10333000094B984209D003F58053984207D0A3F572
:103340008023984205D00020704702207047032058
:1033500070470120704700BF00100C4030B583B0AB
:103360000446FFF7E5FF01231A4619460E4D35F8CE
:10337000100000F0FFFB0723A3600023E3656360F8
:10338000E3602362E36463652365084B9C4206D0D7
:103390000323E3601023A362019B03B030BD00232D
:1033A0002361A3690193F3E73CA7001A00200840BA
:1033B00038B505460C46FFF7BBFF0C4B33F8100041
:1033C00000F02AFC2301B0FBF3F3D9B2EA6842F023
:1033D0008002EA602960C3F307226A60EA6822F08B
:1033E0008002EA60B0FBF3F0000938BD34A7001A90
:1033F0002DE9F04F83B083468846FFF799FF354BA0
:1034000033F8100000F008FC06464FF0FF370124A7
:1034100000230193A24699462AE042424B1C17E042
:103420000AB317460195A24699460135AC421ED90A
:1034300033093007A4FB000104FB0311621908FBE8
:1034400002F2002301F076FE02460B460028E4DB80
:103450009742EAD3002BE8D0190CE6D1022BDFD833
:10346000002DDDD0E1E717460195A24699460134CB
:103470001FB10F2C01D80025D8E7B9F1000F24D0D7
:10348000DBF80C3043F08003CBF80C305FFA89F3A3
:10349000CBF80030C9F30723CBF80430DBF80C304D
:1034A00023F08003CBF80C304FEA0A13DBB201990A
:1034B00001F00F021343CBF8283033090AFB03F362
:1034C0008A4409FB0AF9B3FBF9F9484603B0BDE8A1
:1034D000F08F00BF34A7001A034B984201D003209D
:1034E00070470420704700BF00400E4070B50D4685
:1034F00014461E46FFF7F0FF00F08EFB65B904EBA3
:10350000840304EB430404EB40006400B0FBF4F0DC
:10351000C0B20138C0B270BD04FB06F4F3E7036823
:1035200023F0E06343EA016101607047043150F821
:103530002130002B01DB00207047C3F38913138077
:103540000120704738B505460C46FFF7C5FF01233B
:103550001A46194600F00EFB0021E960084A226075
:10356000217161710B232846FFF7C0FF000240F470
:1035700000132079400400F460201843286038BD0F
:10358000801A060008B54FF48072C2600022026003
:10359000FFF7A2FF00F026FB08BD08B5FFF7C6FF46
:1035A00008BD012A0AD01AB1022A0FD000207047A4
:1035B000006BC84000F00100C0B270470831C9B2CA
:1035C000006BC84000F00100C0B27047036B1B0CD9
:1035D00014BF012000207047012A07D0C3680122D0
:1035E00002FA01F123EA0101C1607047C36802FADF
:1035F00001F11943C160704708B5012904D932B9F6
:10360000036823F000630360FFF789FF08BD0368C8
:1036100043F000630360F7E770B505460E460468A3
:1036200024F46F2424F470640A600B79C3F10B0353
:10363000DBB24979FFF75AFF44EA002430794004AD
:1036400000F460202043286070BD08B50A710A6844
:10365000FFF7E2FF08BD012A0BD0036823F0E06307
:1036600003600368012202FA01F123EA010101600B
:103670007047036802FA01F119430160704738B5D9
:1036800004460D460021FFF74AFF25B1236843F4A5
:103690008033236038BD236823F480332360F9E747
:1036A000F0B40B6813F0800F02D023F040030B60DE
:1036B000074601253BE04B6903FB02F3B3FBF5F33F
:1036C00014E01C4620E0CCF1000C20E00132B2F501
:1036D000807F26DC0C6814F0400FECD0731C02FADB
:1036E00003FC4B6903FB0CF3B3FBF5F3DFF84CC0B1
:1036F0006345EBD9DFF848C0634512D814F0800F5A
:10370000DFD1741C23FA04F4B0EB040CDBD467455E
:10371000DCD98D60771CCF600A618C61CB61674614
:10372000D4E70136032E01DC0122D0E70135042D58
:1037300001DC0026F6E7F0BC704700BFFF5E4C09D5
:1037400000D01213F0B599B005460C465C2200215A
:1037500001A802F011FD802300936369059323798A
:103760008DF8043069462846FFF79AFF069BAB4266
:1037700027D0EB1A2ED41E46109B23F04003109343
:103780006369159323798DF8443010A92846FFF713
:1037900087FF169BAB421FD0EB1A25D41F462B4B3D
:1037A0009D4223D90E9BED1A33D4AE423BDCBE4280
:1037B00031DC6D460FCD0FC495E80F0084E80F0093
:1037C00006E06D460FCD0FC495E80F0084E80F00AA
:1037D00019B0F0BD5B42CEE710AD0FCD0FC495E838
:1037E0000F0084E80F00F3E75B42D7E7402308931C
:1037F00063690D9308A92846FFF752FF0E9BAB4261
:10380000D0D108AD0FCD0FC495E80F0084E80F00AC
:10381000DEE76D42C9E710AD0FCD0FC495E80F008C
:1038200084E80F00D4E7AF4207DB08AD0FCD0FC42B
:1038300095E80F0084E80F00CAE710AD0FCD0FC464
:1038400095E80F0084E80F00C2E700BF80778E067E
:1038500030B4054600231C2000E001331C2818D199
:1038600003EB430251000C4A0A441479844210D0FD
:1038700003EB43014A0008498A5AAA42EDD803EBF8
:1038800043025100044A0A445288AA42E5D3204622
:10389000E4E730BC704700BF50A7001A82B04FF475
:1038A0007A7301930D4A936923F0020192698A4267
:1038B00001D00A4A916123F00303094A1168094AB9
:1038C000914201D943F00403044A9361019B5A1EBB
:1038D0000192002BFAD102B0704700BF00000540F2
:1038E000B8A6001AFF2C31011230054B53F8200006
:1038F00010F0010F02D1C0F304607047112070472F
:103900000000054000F11202034B53F82220034B44
:10391000185C00EA920070470000054048A7001AB2
:1039200008B510280AD8DFE800F0420B0D161F0971
:103930002225282B09092E32363A3E00002038E095
:103940001E4836E01E4BD3F82C3103F00703042B3E
:1039500030D100202DE01A4BD3F82C3103F00703AF
:10396000042B29D0174824E0174B186821E0174B87
:1039700018681EE0164B18681BE0154B586818E0D5
:1039800000F06AF815E0002100F09CF811E0012138
:1039900000F098F80DE0022100F094F809E003210E
:1039A00000F090F805E0042100F08CF801E04FF4FD
:1039B000004008BD0348FCE70648FAE7001BB700D3
:1039C0000030044040787D018CA6001AB8A6001A89
:1039D000C078001080F0FA0238B505460C46087928
:1039E000FFF79EFF6061194B2B44194A934221D87F
:1039F00018B3802323600023A360E360B5FBF0F3DA
:103A00002361144A954203D903FB00F0A84207D072
:103A100021462846FFF796FEA3688BB1013BA360C1
:103A2000236983B1E2680AB1013AE260013B236194
:103A3000002038BD4FF0FF30FBE74FF0FF30F8E7D4
:103A40004FF0FF30F5E74FF0FF30F2E7103A6BFF31
:103A50001005940BFF5E4C0930B583B0174D6C6CAC
:103A6000C4F30360FFF75CFF154B1B6801932B6CDD
:103A700013F0010F1FD0C4F30743C4F30132C4F3A2
:103A80000121C4F38015013301320DF1080C6144AA
:103A900011F8041C14F0800F08D13DB94900B3FBA4
:103AA000F1F3B0FBF2F000FB03F005E0B0FBF2F045
:103AB00003FB00F000E0002003B030BD0000054033
:103AC00044A7001A38B50C460846FFF70DFF054617
:103AD0002046FFF717FF04462846FFF721FF013471
:103AE000B0FBF4F038BDFFFF30B400F11604A400C1
:103AF00004F1804404F5A02464681B2813D811291C
:103B00001AD00E4D25400AB145F400650BB145F0C1
:103B1000010545EA01651630800000F1804000F59E
:103B2000A020456008E044F001041630800000F158
:103B3000804000F5A020446030BC7047FEF7FFE0F5
:103B40001B280CD81630800000F1804000F5A02022
:103B5000406810F0010F04D1C0F3046070471120D9
:103B600070471120704708B5FFF7EAFFFFF7D8FE4E
:103B700008BDFFFF69B901210AB141F00401022B20
:103B800009D0B0F5A17F09D22030074B43F830109F
:103B900070470321F0E741F02001F2E7A0F59170B2
:103BA000024B43F8301070470010054000200540DC
:103BB000B0F5A17F08D2094A203052F8303043F0E6
:103BC000010342F830307047054AA0F5917052F871
:103BD000303043F0010342F83030704700100540A8
:103BE00000200540B0F5A17F08D2094A203052F8E4
:103BF000303023F0010342F830307047054AA0F519
:103C0000917052F8303023F0010342F830307047A1
:103C1000001005400020054010B5B0F5A17F09D384
:103C2000A0F591730D4A52F8334014F0010F07D1FB
:103C3000002010BD00F12003094A52F83340F4E798
:103C4000FFF706FEFFF78FFF14F0E00F03D101230B
:103C5000B0FBF3F0EDE70223FAE700BF00200540D8
:103C60000010054008B56920FFF7D6FF014B18602A
:103C700008BD00BFFC79001070B58AB005460E463D
:103C800014464CF250330993062818D00023012221
:103C900029460420FFF728FF494A536C43F00103EB
:103CA00053648DF8085001A93046FFF795FE454B47
:103CB0009E4216D9019B13F0400F03D0FEE7FFF799
:103CC000EDFDE3E713F0800F05D023F080030193AF
:103CD0000025012607E0049B0133049301250026FB
:103CE00001E000252E469DF80820019B43EA02636F
:103CF000059A43EA0243039A43EA0233049A43EAE9
:103D0000022343F400632E4A53642D4B1B6C13F0C3
:103D1000010FFAD00023012209210420FFF7E4FE5D
:103D2000FEB14CF250330993099B5A1E0992002BA5
:103D3000FAD1019B43F0800301939DF8082043EAE8
:103D40000263059A43EA0243039A43EA0233049A60
:103D500043EA022343F40063194A53646CB300241A
:103D600029E0002DFAD04CF250330993099B5A1EDA
:103D70000992002BFAD1049B5A1E04929DF8081058
:103D8000019B43EA0163059943EA0143039943EA2E
:103D9000013343EA022343F40063094A5364DDE735
:103DA000094800EB8401CB788A78497810F8240020
:103DB000FFF79AFE0134112CF2D90AB070BD00BF92
:103DC0000000054080778E06BCA7001A7047FFFFF1
:103DD000034B984201D083207047A520704700BF55
:103DE00000500C40044B984202D040F20220704731
:103DF0004FF4F170704700BF00500C40036823F48B
:103E00007F43090289B2194301600261704770B5AE
:103E100006460D46FFF7E6FFFFF7FEFE02224FF0D3
:103E2000FF33002100E02146AB420BD94C1C02FBC2
:103E300004F3B0FBF3F39D42F6D2FF2CF3D9023228
:103E40000021F1E73046FFF7D9FF70BD10B50446F9
:103E5000FFF7BEFFFFF7ACFE2046FFF7C3FFFFF7FB
:103E6000A7FE636823F004036360236823F0FF0365
:103E700043F00703236002492046FFF7C8FF10BD47
:103E8000A086010008B50B4A0B4B9A6003F50C7332
:103E90001B6903F47F63202B04D0FFF705FAFFF7BB
:103EA0008BF908BD044AD2F8883043F47003C2F895
:103EB0008830F2E70000001A00ED00E0044B1860C3
:103EC000044A136843F0010313600120704700BFE8
:103ED00040000010001000E070B5044600EB400206
:103EE0009300224AD6587569EDB215F0010F0AD039
:103EF00028B91F4B1B6813B11E4A10689847032C42
:103F000014D0052C1AD015F0200F0ED0736813F0C2
:103F1000020F0AD02CB9184B1B6813B1174A10684E
:103F20009847032C12D0052C18D070BD144B1B6879
:103F3000002BE6D0134A10689847E2E7124B1B6843
:103F4000002BE0D0114A10689847DCE7104B1B6843
:103F5000002BE8D00F4A10689847E4E70E4B1B6827
:103F6000002BE2D00D4A10689847DEE704A8001A3B
:103F7000C8780010CC780010E0780010E4780010C9
:103F8000D0780010D4780010D8780010DC780010B9
:103F9000E8780010EC780010F0780010F478001049
:103FA00041B300EB40039A001E4B134493F90A30CF
:103FB000002B18DB03F1604303F56143A02283F873
:103FC000002300EB40008200164B134493F90A30A3
:103FD000002B25DB03F01F015B0901228A401249F7
:103FE00041F82320704703F00F03104A1A44A0231E
:103FF0001376E6E700EB400082000A4B134493F986
:104000000A30002B0CDB03F01F015B0901228A4000
:104010002033054941F82320BFF34F8FBFF36F8F43
:10402000704700BF04A8001A00E100E0FCEC00E0CB
:1040300010B461B101291CD1DAB101282CD9C11EFB
:10404000C9B201292DD9052830D0022309E082B157
:10405000012811D9C11EC9B2012912D9052815D0CC
:10406000052300EB4000820013498A5851680B4336
:1040700053605DF8044B704710490A6010490B60AB
:10408000E8E710490A6010490B60E7E70F490A604A
:104090000F4A13600523E4E70E490A600E490B60DE
:1040A000CDE70E490A600E490B60CCE70D490A6066
:1040B0000D4A13600223D4E704A8001AC878001040
:1040C000CC780010D0780010D4780010D878001088
:1040D000DC780010E0780010E4780010E878001038
:1040E000EC780010F0780010F478001000EB40003D
:1040F0008300034AD358586900F02000704700BF7E
:1041000004A8001A00EB40008300024AD358186844
:10411000C0B2704704A8001A00EB40008300024AB6
:10412000D3581960704700BF04A8001A2DE9F8435E
:1041300080468946194C45002A189300E618E7582E
:104140003846FFF70BF949463846FFF731F90723A0
:10415000BB603B680123FB6530797379B27942F02B
:1041600018020F4903EB401341F82320F079337A0A
:10417000727A42F0D00203EB401341F82320B8F1E9
:10418000010F01D0BDE8F883064AD36C43F0300339
:10419000D3641A22C1F80823F4E700BF04A8001A68
:1041A000006008400010084038B504460D4620461F
:1041B000FFF79CFF0028FAD029462046FFF7ACFF06
:1041C00038BD38B505460C4603E02846FFF7ECFF3E
:1041D000013421780029F8D138BD08B50320FFF754
:1041E0007BFE08BD08B50520FFF776FE08BDFEE79B
:1041F0007047FFFF38B5002401E00134E4B2032C1E
:1042000012D865B2094B1A6804F00F0101238B40E4
:104210001A42F2D0064B53F824300020984701236D
:10422000AB40024A1360E8E738BD00BF00400840D9
:104230004400001038B5002401E00134E4B2032C3E
:1042400013D865B2094B1A6804F00F0101238B40A3
:104250001A42F2D0231D064A52F823300020984714
:104260000123AB40014A1360E7E738BD0050084026
:104270004400001038B5002401E00134E4B2032CFE
:1042800014D865B20A4B1A6804F00F0101238B4061
:104290001A42F2D004F10803064A52F823300020F3
:1042A00098470123AB40024A1360E6E738BD00BFE0
:1042B00000300C404400001038B5002401E0013407
:1042C000E4B2032C14D865B20A4B1A6804F00F014B
:1042D00001238B401A42F2D004F10C03064A52F833
:1042E0002330002098470123AB40024A1360E6E7E1
:1042F00038BD00BF00400C404400001030B583B012
:1043000018B101284AD003B030BD264B6D4693E862
:10431000030085E80300244C29462046FFF712F9E4
:1043200000212046FFF7ABF9204A29462046FFF737
:1043300073F9002201212046FFF78DF900220121A7
:104340002046FFF749F9002202212046FFF783F9B2
:10435000002202212046FFF73FF9002203212046D8
:10436000FFF779F9002203212046FFF735F90022F3
:1043700004212046FFF76FF9002204212046FFF7B1
:104380002BF90B4AD2F8883C43F01003C2F8883C62
:10439000002205212046FFF71FF9B4E70248FFF786
:1043A000F1F8B0E74CA8001A00300E40400D0300B1
:1043B0000060084070B582B00130C4B20026ADF88C
:1043C0000660114D012221462846FFF744F9324686
:1043D00001212846FFF710F9002221460A48FFF77D
:1043E000E0F80128F8D1084D0DF1060221462846D3
:1043F000FFF7D3F8002221462846FFF72CF9BDF835
:10440000060002B070BD00BF00300E4030B40B4D4E
:1044100000EB80002C182856087094F901101170D8
:1044200094F902201A7094F90320029B1A7094F9EF
:104430000420039B1A7030BC704700BF54A8001AB8
:1044400010F1020F00F0C780B0F1FF3F00F0C5800F
:1044500070B584B00C4600238DF80F308DF80E3007
:104460008DF80D308DF80C308DF80B300DF10B03FD
:10447000019303AB00930DF10D030DF10E020DF14D
:104480000F01FFF7C3FF052C00F2A980DFE804F05D
:104490000981274563035348FFF798FC012004B0C6
:1044A00070BD9DF80F109DF80E309DF80D2042F064
:1044B000D00203EB41134C4941F823209DF80C3006
:1044C0009DF90B20012000FA02F1464C03F5006330
:1044D00054F8232022EA010244F82320DFE79DF864
:1044E0000F109DF80E309DF80D2042F0C00203EB36
:1044F00041133D4941F823209DF80C309DF90B20D4
:10450000012000FA02F1374C03F5006354F8232030
:1045100022EA010244F82320C1E79DF80F109DF81C
:104520000E309DF80D2042F0D80203EB41132E49C6
:1045300041F823209DF80C309DF90B20012000FA52
:1045400002F1284C03F5006354F8232022EA01020B
:1045500044F82320A3E79DF80F109DF80E309DF836
:104560000D2042F0C80203EB41131F4941F82320FC
:104570009DF80C309DF90B20012000FA02F1194C36
:1045800003F5006354F8232022EA010244F82320B3
:1045900085E79DF80F109DF80E309DF80D2042F034
:1045A000D00203EB4113104941F823209DF80C4041
:1045B0009DF90B20012000FA02F10A4B04F5006579
:1045C00053F82560314343F82510D2B203EB44136E
:1045D0000021995463E700207047002070470020B5
:1045E0005DE700BF00400F400060084010F1020F7F
:1045F0002DD0B0F1FF3F2CD010B584B00C46002375
:104600008DF80F308DF80E308DF80D308DF80C30A0
:104610008DF80B300DF10B03019303AB00930DF1FB
:104620000D030DF10E020DF10F01FFF7EFFE9DF8E6
:104630000C309DF80B20211C18BF01215B0103F1F8
:10464000402303F570239954012004B010BD0020CD
:1046500070470020704710F1020F2CD0B0F1FF3FDF
:104660002BD000B585B000238DF80F308DF80E30BB
:104670008DF80D308DF80C308DF80B300DF10B03EB
:10468000019303AB00930DF10D030DF10E020DF13B
:104690000F01FFF7BBFE9DF90C309DF80B205B016D
:1046A00003F1402303F57023985C003018BF01200C
:1046B00005B05DF804FB012070470020704710B57D
:1046C0000446FFF7C8FFB0FA80F149092046FFF71A
:1046D0008DFF10BD08B5044B1B681B68DB68034ADF
:1046E0001068984708BD00BF007A0010F8780010E5
:1046F00008B5FFF7B7FA184B1868FFF7DFFB05217D
:104700000020FFF79DFE00212420FFF799FE0021E5
:104710002520FFF795FE00212620FFF791FE0021BE
:104720002720FFF78DFE01212820FFF789FE0121B8
:104730002920FFF785FE01212A20FFF781FE0121B4
:104740002B20FFF77DFE01212C20FFF779FE0121B0
:104750002D20FFF775FE08BDFC790010012303FA38
:1047600000F0014B5862704700700840F8B5124BDA
:104770001A5C124BD969012383400B4211D11049B5
:104780008E68104D51008F18FC0027462C44A660FF
:104790006468361B3D44EE60084A1362FFF7DEFF93
:1047A000F8BD07498C6802EB4202D100054A0A4471
:1047B0005460024AD361F1E73CA9001A0070084036
:1047C000004008408400001008B50020FFF7CEFF2D
:1047D00008BD08B50120FFF7C9FF08BD08B50220D4
:1047E000FFF7C4FF08BDFFFF81F0004102E000BFFA
:1047F00083F0004330B54FEA41044FEA430594EAA1
:10480000050F08BF90EA020F1FBF54EA000C55EADB
:10481000020C7FEA645C7FEA655C00F0E2804FEAAC
:104820005454D4EB5555B8BF6D420CDD2C4480EA8E
:10483000020281EA030382EA000083EA010180EABE
:10484000020281EA0303362D88BF30BD11F0004F0C
:104850004FEA01314FF4801C4CEA113102D0404242
:1048600061EB410113F0004F4FEA03334CEA13337D
:1048700002D0524263EB430394EA050F00F0A78095
:10488000A4F10104D5F1200E0DDB02FA0EFC22FA90
:1048900005F2801841F1000103FA0EF2801843FA84
:1048A00005F359410EE0A5F120050EF1200E012A75
:1048B00003FA0EFC28BF4CF0020C43FA05F3C018B3
:1048C00051EBE37101F0004507D54FF0000EDCF12C
:1048D000000C7EEB00006EEB0101B1F5801F1BD3D5
:1048E000B1F5001F0CD349085FEA30004FEA3C0CD9
:1048F00004F101044FEA445212F5800F80F09A80CF
:10490000BCF1004F08BF5FEA500C50F1000041EBD2
:10491000045141EA050130BD5FEA4C0C404141EBD6
:10492000010111F4801FA4F10104E9D191F0000FFD
:1049300004BF01460020B1FA81F308BF2033A3F180
:104940000B03B3F120020CDA0C3208DD02F1140C77
:10495000C2F10C0201FA0CF021FA02F10CE002F1B2
:104960001402D8BFC2F1200C01FA02F120FA0CFCAB
:10497000DCBF41EA0C019040E41AA2BF01EB0451F4
:10498000294330BD6FEA04041F3C1CDA0C340EDCF2
:1049900004F11404C4F1200220FA04F001FA02F335
:1049A00040EA030021FA04F345EA030130BDC4F1F3
:1049B0000C04C4F1200220FA02F001FA04F340EAE8
:1049C0000300294630BD21FA04F0294630BD94F099
:1049D000000F83F4801306BF81F480110134013D80
:1049E0004EE77FEA645C18BF7FEA655C29D094EAF1
:1049F000050F08BF90EA020F05D054EA000C04BF6F
:104A00001946104630BD91EA030F1EBF0021002059
:104A100030BD5FEA545C05D14000494128BF41F0F8
:104A2000004130BD14F580043CBF01F5801130BD5C
:104A300001F0004545F0FE4141F470014FF00000E7
:104A400030BD7FEA645C1ABF194610467FEA655C98
:104A50001CBF0B46024650EA013406BF52EA03353A
:104A600091EA030F41F4002130BD00BF90F0000F28
:104A700004BF0021704730B54FF4806404F1320464
:104A80004FF000054FF0000150E700BF90F0000F1D
:104A900004BF0021704730B54FF4806404F1320444
:104AA00010F0004548BF40424FF000013EE700BF14
:104AB00042004FEAE2014FEA31014FEA02701FBFA4
:104AC00012F07F4393F07F4F81F06051704732F0D6
:104AD0007F4208BF704793F07F4F04BF41F400212D
:104AE000704730B54FF4607401F0004521F000418B
:104AF0001CE700BF50EA010208BF704730B54FF015
:104B000000050AE050EA010208BF704730B511F015
:104B1000004502D5404261EB41014FF4806404F14D
:104B200032045FEA915C3FF4D8AE4FF003025FEAD3
:104B3000DC0C18BF03325FEADC0C18BF033202EB57
:104B4000DC02C2F1200300FA03FC20FA02F001FAB1
:104B500003FE40EA0E0021FA02F11444BDE600BF54
:104B600070B54FF0FF0C4CF4E06C1CEA11541DBF03
:104B70001CEA135594EA0C0F95EA0C0F00F0DEF8CE
:104B80002C4481EA030621EA4C5123EA4C5350EAB3
:104B9000013518BF52EA033541F4801143F4801304
:104BA00038D0A0FB02CE4FF00005E1FB02E506F095
:104BB0000042E0FB03E54FF00006E1FB03569CF0EA
:104BC000000F18BF4EF0010EA4F1FF04B6F5007FF0
:104BD00064F5407404D25FEA4E0E6D4146EB060662
:104BE00042EAC62141EA55514FEAC52040EA5E50EB
:104BF0004FEACE2EB4F1FD0C88BFBCF5E06F1ED895
:104C0000BEF1004F08BF5FEA500E50F1000041EBCB
:104C1000045170BD06F0004646EA010140EA020078
:104C200081EA0301B4EB5C04C2BFD4EB0C0541EA9A
:104C3000045170BD41F480114FF0000E013C00F3AF
:104C4000AB8014F1360FDEBF002001F0004170BDD3
:104C5000C4F10004203C35DA0C341BDC04F11404EC
:104C6000C4F1200500FA05F320FA04F001FA05F278
:104C700040EA020001F0004221F0004110EBD37045
:104C800021FA04F642EB06015EEA430E08BF20EA71
:104C9000D37070BDC4F10C04C4F1200500FA04F314
:104CA00020FA05F001FA04F240EA020001F00041A6
:104CB00010EBD37041F100015EEA430E08BF20EA19
:104CC000D37070BDC4F1200500FA05F24EEA020E61
:104CD00020FA04F301FA05F243EA020321FA04F090
:104CE00001F0004121FA04F220EA020000EBD37047
:104CF0005EEA430E08BF20EAD37070BD94F0000F47
:104D00000FD101F00046400041EB010111F4801F7A
:104D100008BF013CF7D041EA060195F0000F18BF2B
:104D2000704703F00046520043EB030313F4801F67
:104D300008BF013DF7D043EA0603704794EA0C0F21
:104D40000CEA135518BF95EA0C0F0CD050EA410637
:104D500018BF52EA4306D1D181EA030101F00041B4
:104D60004FF0000070BD50EA410606BF10461946DC
:104D700052EA430619D094EA0C0F02D150EA0136E8
:104D800013D195EA0C0F05D152EA03361CBF104629
:104D900019460AD181EA030101F0004141F0FE41C8
:104DA00041F470014FF0000070BD41F0FE4141F44C
:104DB000780170BD70B54FF0FF0C4CF4E06C1CEA4C
:104DC00011541DBF1CEA135594EA0C0F95EA0C0F01
:104DD00000F0A7F8A4EB050481EA030E52EA0335BC
:104DE0004FEA013100F088804FEA03334FF08055DD
:104DF00045EA131343EA12634FEA022245EA11150A
:104E000045EA10654FEA00260EF000419D4208BFBA
:104E1000964244F1FD0404F5407402D25B084FEA67
:104E20003202B61A65EB03055B084FEA32024FF413
:104E300080104FF4002CB6EB020E75EB030E22BF70
:104E4000B61A754640EA0C005B084FEA3202B6EB30
:104E5000020E75EB030E22BFB61A754640EA5C00DF
:104E60005B084FEA3202B6EB020E75EB030E22BF6F
:104E7000B61A754640EA9C005B084FEA3202B6EB70
:104E8000020E75EB030E22BFB61A754640EADC002F
:104E900055EA060E18D04FEA051545EA16754FEA91
:104EA00006164FEAC30343EA52734FEAC2025FEAAF
:104EB0001C1CC0D111F4801F0BD141EA00014FF03E
:104EC00000004FF0004CB6E711F4801F04BF01430F
:104ED0000020B4F1FD0C88BFBCF5E06F3FF6AFAE2B
:104EE000B5EB030C04BFB6EB020C5FEA500C50F1BB
:104EF000000041EB045170BD0EF0004E4EEA11313E
:104F000014EB5C04C2BFD4EB0C0541EA045170BD44
:104F100041F480114FF0000E013C90E645EA060E88
:104F20008DE60CEA135594EA0C0F08BF95EA0C0FB6
:104F30003FF43BAF94EA0C0F0AD150EA01347FF4FE
:104F400034AF95EA0C0F7FF425AF104619462CE7D5
:104F500095EA0C0F06D152EA03353FF4FDAE104638
:104F6000194622E750EA410618BF52EA43067FF489
:104F7000C5AE50EA41047FF40DAF52EA43057FF419
:104F8000EBAE12E74FF0FF3C06E000BF4FF0010C24
:104F900002E000BF4FF0010C4DF804CD4FEA410C88
:104FA0007FEA6C5C4FEA430C18BF7FEA6C5C1BD055
:104FB00001B050EA410C0CBF52EA430C91EA030FD6
:104FC00002BF90EA020F0020704710F1000F91EA33
:104FD000030F58BF994208BF90422CBFD8176FEA01
:104FE000E37040F0010070474FEA410C7FEA6C5CCF
:104FF00002D150EA013C07D14FEA430C7FEA6C5CD6
:10500000D6D152EA033CD3D05DF8040B704700BF01
:105010008446104662468C461946634600E000BF4F
:1050200001B5FFF7B7FF002848BF10F1000F01BD21
:105030004DF808EDFFF7F4FF0CBF012000205DF8EC
:1050400008FB00BF4DF808EDFFF7EAFF34BF012071
:1050500000205DF808FB00BF4DF808EDFFF7E0FF0A
:1050600094BF012000205DF808FB00BF4DF808ED5B
:10507000FFF7CEFF94BF012000205DF808FB00BFC2
:105080004DF808EDFFF7C4FF34BF012000205DF8A4
:1050900008FB00BF4FEA4102B2F1E04324BFB3F581
:1050A000001CDCF1FE5C0DD901F0004C4FEAC0029F
:1050B0004CEA5070B2F1004F40EB830008BF20F083
:1050C0000100704711F0804F21D113F13872BCBF3D
:1050D00001F00040704741F480114FEA5252C2F192
:1050E0001802C2F1200C10FA0CF320FA02F018BFDB
:1050F00040F001004FEAC1234FEAD32303FA0CFC2E
:1051000040EA0C0023FA02F34FEA4303CCE77FEABC
:10511000625307D150EA01331EBF4FF0FE4040F406
:105120004000704701F0004040F0FE4040F40000B5
:10513000704700BF53B94AB9002908BF00281CBFF7
:105140004FF0FF314FF0FF3000F072B9ADF1080CB5
:105150006DE904CE00F006F8DDF804E0DDE9022395
:1051600004B070472DE9F047089E04468846002B9E
:105170004BD18A42154667D9B2FA82F24AB1C2F1DE
:10518000200701FA02F320FA07F7954047EA0308DF
:1051900094404FEA154E230CB8FBFEF71FFA85FC2E
:1051A0000EFB178843EA084307FB0CF1994209D923
:1051B000EB1807F1FF3080F01B81994240F2188113
:1051C000023F2B445B1AA4B2B3FBFEF00EFB10337C
:1051D00044EA034400FB0CFCA44509D92C1900F156
:1051E000FF3380F00781A44540F2048102382C444B
:1051F00040EA0740A4EB0C0400271EB1D440002372
:10520000C6E900433946BDE8F0878B4209D9002E34
:1052100000F0EB800027C6E9000138463946BDE8BA
:10522000F087B3FA83F7002F47D18B4202D3824233
:1052300000F2FA80841A61EB030301209846002EE5
:10524000E0D0C6E90048DDE702B9FFDEB2FA82F23B
:10525000002A40F08F80491B4FEA154E1FFA85F84F
:105260000127B1FBFEFC230C0EFB1C1143EA01439A
:1052700008FB0CF1994207D9EB180CF1FF3002D270
:10528000994200F2CD808446591AA3B2B1FBFEF0D8
:105290000EFB101443EA044408FB00F8A04507D9AC
:1052A0002C1900F1FF3302D2A04500F2B680184657
:1052B000A4EB080440EA0C409FE7C7F1200CBB4078
:1052C00022FA0CFE4EEA030E01FA07F420FA0CF55E
:1052D00021FA0CF34FEA1E482543B3FBF8F92C0CD6
:1052E00008FB19331FFA8EFA44EA034309FB0AF458
:1052F0009C4202FA07F200FA07F10BD91EEB0303F6
:1053000009F1FF3080F087809C4240F28480A9F14F
:10531000020973441B1BADB2B3FBF8F008FB10335A
:1053200045EA034400FB0AFAA24508D91EEB04042F
:1053300000F1FF336BD2A24569D90238744440EAC8
:105340000940A0FB0289A4EB0A044C45C2464B4627
:1053500054D351D0002E69D0B1EB0A0564EB03049D
:1053600004FA0CFCFD40FC404CEA0505C6E900547B
:10537000002747E7C2F1200320FA03F7954001FA1E
:1053800002F021FA03F34FEA154E3843010CB3FB48
:10539000FEF71FFA85F80EFB173341EA034107FBBE
:1053A00008F38B4204FA02F407D9691807F1FF3CAD
:1053B0002FD28B422DD9023F2944CB1A81B2B3FBA5
:1053C000FEF00EFB103341EA034100FB08F38B4271
:1053D00007D9691800F1FF3C17D28B4215D9023862
:1053E0002944C91A40EA07473BE73746304609E7F0
:1053F0000746E7E61846FBE64145ABD2B8EB020AA2
:1054000069EB0E0201381346A4E76046E9E7184647
:1054100095E76746D1E781467CE702382C4447E7A9
:10542000ACF1020C2B442FE7384608E73746E9E693
:10543000704700BF70B5002948D005460C4610B132
:10544000836B002B48D0626EB4F90C30D00740D487
:10545000990530D52146284600F054F8E36A0646FF
:1054600033B1E169284698470028B8BF4FF0FF36AE
:10547000A3891A063CD4216B41B104F1400399423F
:1054800002D0284600F0CCF900232363616C21B1DF
:10549000284600F0C5F90023636400F065F9636EE7
:1054A0000022DB07A2811FD5A06D00F00BFB00F0EE
:1054B00061F9304670BDA06D00F006FBB4F90C3008
:1054C000002BC7D1666E16F0010616D000263046B6
:1054D00070BD002BFAD0BDE700F01AF9626EB4F986
:1054E0000C30D007F5D4B3E7A06D00F0EFFADBE79E
:1054F0002169284600F094F9BDE7A06D00F0E6FAB6
:10550000304670BDB1F90C309AB22DE9F0410C462D
:105510001107804644D4626843F40063002AA381E3
:1055200059DDA56A002D53D000229BB2D8F8006047
:10553000E169C8F8002013F4805240F08380012311
:105540004046A847421C4AD0A389A56AE1695B0787
:1055500005D56268236B801A0BB1E36BC01A024653
:1055600000234046A847471C45D0B4F90C302269B7
:10557000226023F400630022A381DB04626000D573
:105580002065216BC8F8006011B304F14003994213
:1055900002D0404600F044F900202063BDE8F081CD
:1055A0002669AEB12568266092070CBF63690023A7
:1055B000AD1BA3600AE02B463246676AE1694046AC
:1055C000B8470028A5EB000506442BDD002DF2DCD2
:1055D0000020BDE8F081E26B002AA2DCF8E7D8F8F1
:1055E0000030002BB0D01D2B01D0162B2CD1C8F8C9
:1055F00000600020EDE7D8F800101D291AD8154BDF
:10560000B4F90C20CB40DB4313F0010314D125691E
:1056100022F40062C4E90053D504A281B1D5002967
:10562000AFD1ADE7A38943F04003A3814FF0FF3032
:10563000BDE8F081B4F90C2042F04002A2814FF0A5
:10564000FF30C6E7206D82E7A38943F04003A381C2
:10565000BFE700BF0100402038B50D46044608B141
:10566000836BA3B1B5F90C00B8B16B6EDB0701D445
:1056700081051AD520462946FFF744FF6B6EDA07ED
:10568000044602D4AB899B050AD5204638BD00F0FC
:105690003FF8B5F90C000028E7D10446204638BD94
:1056A000A86D00F013FA204638BDA86D00F00CFA82
:1056B000E0E700BF10B5002304468181C281C0E944
:1056C000003383604366C0E90433836119460822CE
:1056D0005C3000F051FD07480749084A084BE36277
:1056E000C4E90740C4E9091204F15800BDE81040BC
:1056F00000F0E6B9F962001A1D63001A5963001A36
:105700007963001A014900F07FB900BF3554001ACF
:1057100010B50446124800F0D7F9A26BD2B904F5CF
:105720003B731048C4F8E8320321C4F8E022E06378
:10573000C4F8E41260680421FFF7BCFF01220921CC
:10574000A068FFF7B7FF02221221E068FFF7B2FF5F
:105750000123A3630248BDE8104000F0B7B900BFC1
:10576000107A00100557001A014800F0ADB900BFCB
:10577000247A0010014800F0A9B900BF247A001073
:10578000F8B5244F0C46064600F040FDBB685D6846
:10579000C4F57E610F3125F00305294421F47F61B2
:1057A00021F00F01A1F58054B4F5805F07DB0021E3
:1057B0003046FBF795FDBB682B44984204D0304639
:1057C00000F02AFD0020F8BD61423046FBF788FD5D
:1057D00001300DD0104BBA6819682D1B45F001053A
:1057E0003046091B5560196000F016FD0120F8BD18
:1057F00000213046FBF774FDBA68831A0F2BDEDDFB
:10580000064C0549246843F00103001B53600860FF
:10581000D5E700BF64060010FC7800106C0A001089
:10582000002953D0F8B50C46064600F0EFFC54F8BA
:1058300004CC714F2CF00101A4F108056B18B86875
:105840005A68984222F0030253D01CF0010F5A60AC
:1058500003EB02003BD154F808CC4068A5EB0C05E3
:1058600007F1080EAC687445614400F0010075D082
:10587000D5F80CC0C4F80CC0CCF8084060B341F0B7
:1058800001036B606950B1F5007F50D34B0A042BC4
:1058900070D88B0903F13904E40003F13802381998
:1058A0003B590838984278D05A6822F003028A425D
:1058B00071D99B689842F7D1C368C5E902039D601E
:1058C000C5603046BDE8F84000F0A6BC70474068AF
:1058D00000F001000028D2D19868484C1144A04241
:1058E00041F0010262D0DB68C36098606A60695071
:1058F000C9E71CF0010F0A4407D154F8083CED1A1F
:105900001A44D5E90213CB6099603D4B1B6842F005
:10591000010193426960BD6004D83A4B3046196872
:10592000FFF72EFF3046BDE8F84000F075BCC9080F
:1059300078684A1C012389108B40034307EBC2019E
:1059400057F832007B600839C5E9020147F8325048
:10595000C5603046BDE8F84000F05EBC002845D187
:105960000A44D3E9021342F00100CB6099606860F9
:10597000AA50D7E7142B08D9542B1ED80B0B03F1D0
:105980006F04E40003F16E0289E703F15C04E400B4
:1059900003F15B0283E718468EE7931079680122D2
:1059A00002FA03F30B437B60034686E7C7E904551D
:1059B000C5E902006A606950B4E7B3F5AA7F06D86A
:1059C000CB0B03F17804E40003F1770267E740F2C0
:1059D0005452934206D88B0C03F17D04E40003F18A
:1059E0007C025CE74FF47E747E2258E741F00102AE
:1059F0006A60196096E700BF640600106C0600102C
:105A0000700A00102C7900102DE9F84310F5387752
:105A10001FD0884606464FF00009D7E90154013DE2
:105A200011D4A389012B05F1FF352146304606D953
:105A3000B4F90E30013302D0C04749EA00096B1CAB
:105A400004F16804EDD13F68002FE6D14846BDE877
:105A5000F883B9464846BDE8F88300BF70B50D4EDF
:105A60000D4D761BB61006D00024013455F8043BCA
:105A70009847A642F9D1094E094D761BFBF7DBFB8F
:105A8000B61006D00024013455F8043B9847A642CE
:105A9000F9D170BDC4AB001AC4AB001AC8AB001A70
:105AA000C4AB001A044B054A1B685B6B002B08BF94
:105AB000134693F828017047CC000010F80400103A
:105AC000704700BF704700BF704700BF704700BFFE
:105AD0002DE9F04F01F10B05162D83B0064623D8B2
